:020000040800F2
:10000000B81100204902000841360008492B0008B9
:100010003D360008A50400081DAE000800000000E1
:10002000000000000000000000000000A9370008E8
:10003000D30500080000000045360008AB37000873
:1000400063020008630200086302000863020008FC
:1000500063020008630200086302000863020008EC
:1000600063020008630200086302000863020008DC
:1000700063020008630200086302000863020008CC
:10008000A9040008B904000863020008630200081C
:1000900063020008630200086302000863020008AC
:1000A000630200086302000863020008630200089C
:1000B00081380008630200089138000863020008D4
:1000C000630200086302000863020008630200087C
:1000D00063020008EDAD0008FDAD00080DAE00089C
:1000E000630200086302000863020008630200085C
:1000F000630200086302000863020008630200084C
:100100006302000863020008A138000863020008C7
:10011000630200086302000863020008630200082B
:10012000630200086302000863020008630200081B
:10013000630200086302000863020008630200080B
:1001400063020008630200086302000863020008FB
:1001500063020008630200086302000863020008EB
:1001600063020008630200086302000863020008DB
:100170006302000863020008630200080000000038
:10018000630200086302000800F002F800F04CF877
:100190000AA090E8000C82448344AAF10107DA45E2
:1001A00001D100F041F8AFF2090EBAE80F0013F0E8
:1001B000010F18BFFB1A43F00103184784FF00002A
:1001C000A4FF00000A4410F8014B14F00F0508BF0B
:1001D00010F8015B240908BF10F8014B6D1E05D013
:1001E00010F8013B6D1E01F8013BF9D1641E03D0EC
:1001F000641E01F8015BFBD19142E4D3704700001B
:100200000023002400250026103A28BF78C1FBD81F
:10021000520728BF30C148BF0B6070471FB50CF0B4
:10022000BBFA1FBD10B510BD00F001F91146FFF774
:10023000F5FF0AF0A7FF00F01FF903B4FFF7F2FF84
:1002400003BC00F029F9000009488047094800472D
:10025000FEE7FEE7FEE7FEE7FEE7FEE7FEE7FEE776
:10026000FEE7FEE704480549054A064B70470000D3
:100270006D38000889010008B80B0020B811002073
:10028000B80D0020B80D002053EA020C00F0698080
:100290002DE9F04B4FF00006002B1FBFB3FA83F59A
:1002A00003FA05F424FA05F65E4012BF1643B2FACB
:1002B00082F502FA05F4C5F120051EBF22FA05FCFD
:1002C00044EA0C04203556EA044C4FEA144418BFA3
:1002D000641C4FF000084FF00009904271EB030CD2
:1002E00039D3002919BFB1FA81F701FA07F6B0FA3C
:1002F00080F700FA07F6C7F120071EBF20FA07FCB7
:1003000046EA0C062037B6FBF4FCA7EB0507103FC6
:1003100007F01F0BCBF120060CFA0BFB2CFA06F6AC
:1003200044BFB3460026202FA4BF5E464FF0000B0B
:100330005BEA060C08BF4FF0010B19EB0B09ABFB96
:10034000027C48EB0608C01B06FB02CC0BFB03CC6F
:1003500071EB0C01C1E70B46024641464846BDE839
:10036000F08B13B54FF000004FF00001AFF30080A9
:10037000BDE81C40704710B5203AC0F00B80B1E8D2
:100380001850203AA0E81850B1E81850A0E81850CA
:10039000BFF4F5AF5FEA027C24BFB1E81850A0E8D3
:1003A000185044BF18C918C0BDE810405FEA827CED
:1003B00024BF51F8043B40F8043B08BF7047D20704
:1003C00028BF31F8023B48BF11F8012B28BF20F8A5
:1003D000023B48BF00F8012B70474FF0000200B508
:1003E000134694469646203922BFA0E80C50A0E858
:1003F0000C50B1F12001BFF4F7AF090728BFA0E806
:100400000C5048BF0CC05DF804EB890028BF40F8D1
:10041000042B08BF704748BF20F8022B11F0804F13
:1004200018BF00F8012B704770477047704775463A
:1004300000F02CF8AE4605006946534620F0070050
:10044000854618B020B5FFF70DFFBDE820404FF0FE
:1004500000064FF000074FF000084FF0000B21F0AE
:100460000701AC46ACE8C009ACE8C009ACE8C0097B
:10047000ACE8C0098D46704710B50446AFF3008064
:100480002046BDE81040FFF7D8BE00000048704786
:10049000580B00207047000001491820ABBEFEE752
:1004A0002600020000BFFEE710B5024800F000F988
:1004B00010BD00004804002010B5024800F0F8F814
:1004C00010BD0000A8040020014608781038182349
:1004D000B0FBF3F20848805CC865032A05D90868B8
:1004E0006FF30900001D886503E008686FF30900D9
:1004F0008865886D70470000A2C70008014600208B
:100500008A6A8B69CBB932B1012A0DD0022A03D095
:10051000032A10D10EE000BFCB6A03F08073B3F161
:10052000807F00D1012007E0CB6AB3F1C07F00D10A
:10053000012001E000E000BF34E08B69B3F5005F0B
:100540001AD132B1012A07D0022A03D0032A11D1CD
:100550000AE000BF01200EE0CB6A03F08073B3F124
:10056000807F00D1012006E0CB6AB3F1C07F00D1CB
:10057000012000E000BF15E032B1012A05D0022AB7
:1005800004D0032A0CD103E000BF00BF012008E023
:10059000CB6A03F08073B3F1807F00D1012000E0CB
:1005A00000BF00BF704730B50468246824F480247D
:1005B00005682C60046863608468402C04D104687A
:1005C000A2600468E16003E00468A1600468E2607E
:1005D00030BD704772B600BFFEE770B50446A56D2A
:1005E00000F06CFB064694F83500022808D0802005
:1005F000606500BF002084F8340000BF012070BD9A
:100600002068006820F016002168086020684069B2
:1006100020F0800021684861206C08B9A06C28B1E6
:100620002068006820F008002168086020680068E1
:1006300020F001002168086010E000F03FFB801B03
:1006400005280BD920206065032084F8350000BF01
:10065000002084F8340000BF0320D0E72068006841
:1006600000F001000028E8D194F85C103F20884099
:10067000A860012084F8350000BF002084F8340011
:1006800000BF00BFBBE7014691F83500022803D048
:100690008020486501207047052081F835000868F2
:1006A000006820F001000A6810600020F3E70000F5
:1006B000F8B50446002000908C4800684FF41651AD
:1006C000B0FBF1F7A56D2E6894F85C100820884007
:1006D000304098B12068006800F0040070B12068D4
:1006E000006820F004002168086094F85C1008207D
:1006F0008840A860606D40F00100606594F85C106F
:1007000001208840304068B12068406900F08000D6
:1007100040B194F85C1001208840A860606D40F002
:100720000200606594F85C1004208840304068B195
:100730002068006800F0020040B194F85C100420CA
:100740008840A860606D40F00400606594F85C101B
:1007500010208840304078B32068006800F008001E
:1007600050B394F85C1010208840A860206800689E
:1007700000F4802080B12068006800F4002028B9CF
:10078000206CC8B12046216C884715E0A06C98B158
:100790002046A16C88470FE02068006800F4807054
:1007A00028B92068006820F0080021680860206CE3
:1007B00010B12046216C884794F85C1020208840B6
:1007C0003040002865D02068006800F01000002844
:1007D0005FD094F85C1020208840A86094F8350021
:1007E000052828D12068006820F0160021680860DC
:1007F0002068406920F0800021684861206C08B9B9
:10080000A06C28B12068006820F00800216808600A
:1008100094F85C103F208840A860012084F83500DF
:1008200000BF002084F8340000BF206D10B12046C6
:10083000216D8847F8BD2068006800F4802080B1F1
:100840002068006800F4002028B9606C10B12046D0
:10085000616C88471DE0E06BD8B12046E16B8847AA
:1008600017E02068006800F4807068B920680068AC
:1008700020F0100021680860012084F8350000BFD6
:10088000002084F8340000BFE06B10B12046E16B1B
:100890008847606D38B3606D00F00100F0B105204D
:1008A00084F835002068006820F0010021680860A5
:1008B00000BF0098401C0090B84200D905E02068B5
:1008C000006800F001000028F3D100BF012084F887
:1008D000350000BF002084F8340000BFE06C10B188
:1008E0002046E16C884700BFA4E700000C00002010
:1008F0002DE9F0410446002500F0E0F9074614B95F
:100900000120BDE8F081606A00B100BF022084F8D8
:10091000350000BF002084F8340000BF2068006864
:1009200020F00100216808600AE000F0C7F9C01B50
:10093000052805D920206065032084F83500E0E70C
:100940002068006800F001000028EED120680568EA
:1009500021480540D4E901010843E16808432169C1
:10096000084361690843A1690843E1690843216AB2
:1009700008430543606A042803D1D4E90B01084306
:100980000543206805602068456925F00705606A11
:100990000543606A04280DD1A06A0543E06A48B1A6
:1009A0002046FFF7ABFD28B140206065012084F8A8
:1009B0003500A6E7206845612046FFF785FD06461D
:1009C00094F85C103F208840B060002060650120F2
:1009D00084F83500002094E73F8010F02DE9F047BF
:1009E00004460D4616461F464FF00008D4F85890AE
:1009F00000BF94F83400012802D10220BDE8F0873E
:100A0000012084F8340000BF94F83500012825D176
:100A1000022084F83500002060653B4632462946B6
:100A20002046FFF7C0FD94F85C103F208840C9F8CD
:100A300008002068006840F0160021680860206CFB
:100A400028B12068006840F008002168086020682C
:100A5000006840F001002168086006E000BF002047
:100A600084F8340000BF4FF002084046C6E700009B
:100A700070B5044600F022F906462546681C10B100
:100A800004480078054400BF00F018F9801BA84214
:100A9000FAD370BD08000020F8B502460B460025C9
:100AA000002400200021D6E0012606FA01F51E6888
:100AB00006EA0504AC4274D11E7906F00306012E45
:100AC00004D01E7906F00306022E13D190684F0061
:100AD0000326BE40B0434F00DE68BE403043906006
:100AE000506801268E40B0431E79C6F300168E4032
:100AF000304350601E7906F00306032E09D0D068FB
:100B00004F000326BE40B0434F009E68BE403043B6
:100B1000D0601E7906F00306022E13D1CF0802F131
:100B2000200656F827004E07F70E0F26BE40B043AA
:100B30004F07FF0E1E69BE403043CF0802F120066A
:100B400046F8270010684F000326BE40B0431E79C8
:100B500006F003064F00BE40304310605E6806F4A6
:100B60004036002E76D000BF002600963C4E3668F8
:100B700046F480463A4F3E603E46366806F480466C
:100B8000009600BF00BF374E8F0856F827008E072B
:100B9000370F0F26BE40B043334EB24202D100267B
:100BA00024E057E0314EB24201D101261EE0304E22
:100BB000B24201D1022619E02E4EB24201D10326E3
:100BC00014E02D4EB24201D104260FE02B4EB2426A
:100BD00001D105260AE02A4EB24201D1062605E0DF
:100BE000284EB24201D1072600E008268F073F0FAA
:100BF000BE4030431B4E8F0846F82700224E306817
:100C0000A0435E6806F4801606B120431E4E306095
:100C1000361D3068A0435E6806F4001606B1204316
:100C2000194E361D3060184E361F3068A0435E687E
:100C300006F4003606B12043134E361F3060361FCF
:100C40003068A0435E6806F4803606B120430E4E3D
:100C5000083E3060491C1029FFF426AFF8BD0000A3
:100C600044380240083801400000024000040240BD
:100C700000080240000C0240001002400014024034
:100C800000180240001C0240083C01400246136963
:100C90000B400BB1012000E00020704710B5426905
:100CA00021EA020302EA010443EA0443836110BD1E
:100CB0000AB1816101E00B0483617047014800685B
:100CC00070470000000000200348006803490978CD
:100CD0000844014908607047000000200800002017
:100CE00010B50D48006840F400700B4908600846D4
:100CF000006840F4806008600846006840F4807036
:100D00000860032000F0A6F80F2000F007F800F0BC
:100D10002BF8002010BD0000003C024070B50446D6
:100D20000E4800784FF47A71B1FBF0F00C49096875
:100D3000B1FBF0F5284600F0B5FD08B1012070BD0B
:100D4000102C07D200222146501E00F045F805481D
:100D5000046001E00120F2E70020F0E70800002035
:100D60000C0000200400002008B500BF0020009007
:100D70000E48006840F480400C490860084600684E
:100D800000F48040009000BF00BF00BF0020009032
:100D9000081F006840F08050091F0860084600687E
:100DA00000F08050009000BF00BF08BD44380240F2
:100DB0000146084600280DDB00BF00BF00F01F03FE
:100DC00001229A4043099B0003F1E023C3F800216C
:100DD00000BF00BF00BF70472DE9F05F80460D46A1
:100DE000164600270AF01CF8074639462A463346BD
:100DF00001F00700C0F1070ABAF1040F02D94FF061
:100E0000040A01E0C0F1070AD14600F1040ABAF170
:100E1000070F02D24FF0000A01E0A0F1030AD44606
:100E20004FF0010A0AFA09FAAAF1010A0AEA020ACB
:100E30000AFA0CFA4FF0010B0BFA0CFBABF1010BA9
:100E40000BEA030B4AEA0B042146404609F0F0FF87
:100E5000BDE8F09F00BF00F00702064B19684FF68F
:100E6000FF031940044B0B4343EA0221014B196075
:100E700000BF70470CED00E00000FA0570B50446B5
:100E80000D460CB9012070BD5848006800F00700FD
:100E9000A84209D255490D700846006800F00700C5
:100EA000A84201D00120EEE7207800F002000228DD
:100EB0001DD1207800F00400042805D14C480068BA
:100EC00040F4E0504A490860207800F00800082803
:100ED00005D14748006840F46040454908604448EF
:100EE000006820F0F000A1680843414908602078BC
:100EF00000F00100A8B36068012807D13C48083819
:100F00000068C0F34040B8B90120BCE7606802281F
:100F100002D06068032807D1354808380068C0F35C
:100F2000406048B90120AEE7314808380068C0F396
:100F3000400008B90120A6E72D48006820F0030012
:100F4000616808432A490860FFF7B8FE064609E0D1
:100F5000FFF7B4FE801B41F28831884202D903209A
:100F600091E707E02248006800F00C006168B0EBF0
:100F7000810FEDD11D48006800F00700A84209D993
:100F80001A490D700846006800F00700A84201D019
:100F9000012078E7207800F00400042807D11448E5
:100FA000006820F4E050E1680843114908602078A7
:100FB00000F00800082808D10D48006820F46040BF
:100FC000216940EAC1000A49086000F03FF8084979
:100FD0000968C1F30311074A515CC840064908601B
:100FE00006480068FFF79AFE00204CE7003C0240EC
:100FF00008380240AAC700080C00002004000020A6
:1010000001480068704700000C00002000B5FFF7A1
:10101000F7FF04490968C1F38221034A515CC840C3
:1010200000BD000008380240BAC7000800B5FFF74D
:10103000E7FF04490968C1F34231034A515CC840E3
:1010400000BD000008380240BAC700082DE9F0478B
:10105000002400250026A1462548006800F00C0069
:1010600020B1042805D008283AD105E0DFF88490A3
:1010700039E0DFF8849036E01D48001F006800F07A
:101080003F041B48001F006800F4800078B11A4834
:101090001749091F0968C1F38811A0FB01700146B7
:1010A000224600233846FFF7EFF805460EE01148C8
:1010B0000F49091F0968C1F38811A0FB017001469F
:1010C000224600233846FFF7DFF805460848001F90
:1010D0000068C0F30140401C4600B5FBF6F902E091
:1010E000DFF8109000BF00BF4846BDE8F087000061
:1010F000083802400024F40040787D01F8B5044629
:101100000CB90120F8BD207800F00100002874D04F
:10111000F948006800F00C0004280DD0F64800687B
:1011200000F00C00082813D1F348001F006800F4F9
:101130008000B0F5800F0BD1EF4808380068C0F38D
:101140004040002859D06068002856D10120D9E7D6
:1011500000BF6068B0F5803F08D1E74808380068F4
:1011600040F48030E449083908601EE06068B0F55A
:10117000A02F0DD1E0480838006840F48020DE49F7
:10118000083908600846006840F4803008600CE0C8
:10119000D9480838006820F48030D74908390860F9
:1011A0000846006820F48020086000BF606890B1A5
:1011B000FFF784FD054606E0FFF780FD401B64282D
:1011C00001D903209EE7CC4808380068C0F34040AE
:1011D0000028F1D011E0FFF771FD054606E0FFF7AA
:1011E0006DFD401B642801D903208BE7C2480838F5
:1011F0000068C0F340400028F1D1207800F00200E0
:1012000002285FD1BC48006800F00C0058B1BA4811
:10121000006800F00C0008281CD1B748001F0068C7
:1012200000F48000B0B9B44808380068C0F340004A
:1012300020B1E068012801D0012063E7AE480838FA
:10124000006820F0F800216940EAC100AA49083985
:10125000086037E0E06800B30120A8490860FFF7A4
:101260002DFD054606E0FFF729FD401B022801D9A8
:10127000032047E7A04808380068C0F34000002872
:10128000F1D09D480838006820F0F800216940EA54
:10129000C10099490839086014E0002097490860A6
:1012A000FFF70CFD054606E0FFF708FD401B02288E
:1012B00001D9032026E7904808380068C0F34000B1
:1012C0000028F1D1207800F0080008282CD16069AE
:1012D000A8B101208A490860FFF7F0FC054606E046
:1012E000FFF7ECFC401B022801D903200AE78248E3
:1012F0006C300068C0F340000028F1D014E00020FA
:101300007F490860FFF7DAFC054606E0FFF7D6FCE8
:10131000401B022801D90320F4E677486C300068AE
:10132000C0F340000028F1D1207800F00400042828
:1013300070D1002770483830006800F0805090B9B4
:1013400000BF002000906C483830006840F08050AA
:101350006949383108600846006800F08050009004
:1013600000BF00BF01276748006800F48070B0B973
:101370006448006840F4807062490860FFF79EFC92
:10138000054606E0FFF79AFC401B022801D903201E
:10139000B8E65C48006800F480700028F2D000BF16
:1013A000A068012808D154486830006840F0010066
:1013B0005149683108601DE0A06805280DD14E48EC
:1013C0006830006840F004004B4968310860084606
:1013D000006840F0010008600CE047486830006891
:1013E00020F001004449683108600846006820F098
:1013F0000400086000BFA068A8B1FFF75FFC0546C5
:1014000009E0FFF75BFC401B41F28831884202D9BA
:10141000032077E626E0384868300068C0F34000D3
:101420000028EED013E0FFF749FC054608E0FFF77F
:1014300045FC401B41F28831884201D9032061E616
:101440002D4868300068C0F340000028EFD1012F1C
:1014500007D129483830006820F0805026493831BB
:10146000086000BFA069002845D02348006800F04C
:101470000C0008285DD0A069022845D100201F4932
:101480000866FFF71BFC054606E0FFF717FC401B4C
:10149000022801D9032035E6174808380068C0F350
:1014A00040600028F1D1D4E907010843616A40EAAD
:1014B00081110122A06AC2EB500041EA00412C20B8
:1014C000005D41EA00600C49091F086001200B49DA
:1014D0000866FFF7F3FB054606E0FFF7EFFB401B4E
:1014E000022801D903200DE6034808380068C0F33C
:1014F00040600028F1D049E008380240000047422F
:10150000800E474200700040002021490866FFF726
:10151000D5FB054606E0FFF7D1FB401B022801D9A9
:101520000320EFE51B480068C0F340600028F2D1BB
:101530002CE0A069012800D1E4E51648001D0668EA
:10154000A069012820D006F48001E06981421BD106
:1015500006F03F01206A814216D147F6C070304044
:10156000616AB0EB811F0FD106F440310122A06AFD
:10157000C2EB5000B1EB004F06D106F070612C2099
:10158000005DB1EB006F01D00120BBE50020B9E5A3
:10159000000047420038024010B504460CB9012053
:1015A00010BD606A38B96068B0F5827F00D105E08F
:1015B0000021E16102E00021216161610021A1625D
:1015C00094F8510028B9002084F85000204600F01B
:1015D00047F8022084F851002068006820F040009D
:1015E00021680860A08800F48270218901F4044118
:1015F0000843A18901F400610843217C01F0020144
:101600000843217D01F001010843218B01F40071A1
:101610000843217F01F0380108432021095D01F0D2
:1016200080010843218D01F40051084321680860BE
:101630000421A06901EA104094F8241001F010017F
:101640000843216848602068C06920F40060216870
:10165000C86100206065012084F8510000209FE7E8
:1016600010B586B00446142101A8FEF7B6FE1B494A
:10167000206888422FD100BF0020009018480068E1
:1016800040F48050164908600846006800F4805015
:10169000009000BF00BF00BF002000901048143829
:1016A000006840F001000E491439086008460068DF
:1016B00000F00100009000BF00BFE0200190022078
:1016C000029000200390032004900520059001A9BA
:1016D0000448FFF7E1F906B010BD000000300140FA
:1016E00044380240000002402DE9F84F0446884685
:1016F00016461D464FF0000A00BF94F8500001281E
:1017000002D10220BDE8F88F012084F8500000BF0C
:10171000FFF7D4FA0746B14694F85100012802D0E9
:101720004FF0020AB7E0B8F1000F00D016B94FF041
:10173000010AB0E0032084F8510000206065C4F87D
:101740003080A686E686A063A087E0876064206478
:10175000A068B0F5004F0BD12068006820F0400071
:10176000216808602068006840F4804021680860B3
:101770002068006800F04000402805D0206800681C
:1017800040F0400021680860E068B0F5006F32D199
:10179000606810B1B9F1010F09D1206B0088216890
:1017A000C860206B801C2063E08E401EE0861EE037
:1017B0002068806800F0020002280AD1206B0088AF
:1017C0002168C860206B801C2063E08E401EE0868C
:1017D0000DE0FFF773FAC01BA84201D3681C00B9E3
:1017E0002DB94FF0030A012084F8510053E0E08E38
:1017F0000028DDD131E0606810B1B9F1010F09D1E5
:10180000206B007821680873206B401C2063E08EF9
:10181000401EE0861EE02068806800F0020002287A
:101820000AD1206B007821680873206B401C20636C
:10183000E08E401EE0860DE0FFF740FAC01BA84294
:1018400001D3681C00B92DB94FF0030A012084F8B8
:10185000510020E0E08E0028DDD13A46294620469E
:1018600001F0F2FE08B120206065A06850B900BF09
:10187000002000902068C068009020688068009078
:1018800000BF00BF606D10B14FF0010A02E00120FF
:1018900084F8510000BF00BF002084F8500000BF52
:1018A00050462FE770B504462546681EB0F1807F8C
:1018B00001D301200FE0681E4FF0E02148610F21A5
:1018C0004FF0FF3009F0B4FA00204FF0E0218861BA
:1018D00007200861002070BD7047704730B5024690
:1018E0000B4600BF92F83C00012801D1022030BD18
:1018F000012082F83C0000BF022082F83D00106801
:1019000044681068816824F0700418680443106803
:101910004460184D1068A8421BD01068B0F1804F89
:1019200017D0154D1068A84213D0144D1068A84266
:101930000FD0134D1068A8420BD0124D1068A8426A
:1019400007D0114D1068A84203D0104D1068A8426E
:1019500005D121F0800158680143106881600120A1
:1019600082F83D0000BF002082F83C0000BF00BFAD
:10197000BDE70000000001400004004000080040F6
:10198000000C0040000401400040014000180040ED
:1019900010B504460CB9012010BD94F83D0028B9DB
:1019A000002084F83C00204600F026F8022084F84D
:1019B0003D00211D206801F07BFF012084F84600D6
:1019C00000BF84F83E0001213F2001554020015511
:1019D0004120015500BF00BF012084F84200432090
:1019E0000155442001554520015500BF012084F8D0
:1019F0003D000020D0E7000038B504462068B0F173
:101A0000804F18D100BF002000902848006840F0A7
:101A10000100264908600846006800F001000090B7
:101A200000BF00BF002211461C20FFF7D5F91C2083
:101A3000FFF7BEF938E01E492068884218D100BF80
:101A4000002000901948006840F004001749086021
:101A50000846006800F00400009000BF00BF0022AC
:101A600011461E20FFF7B8F91E20FFF7A1F91BE071
:101A700010492068884217D100BF002000900B4811
:101A8000006840F00800094908600846006800F056
:101A90000800009000BF00BF002211463220FFF76F
:101AA0009BF93220FFF784F938BD0000403802402E
:101AB00000080040000C0040014691F83D0001285C
:101AC00001D001207047022081F83D000868C068FD
:101AD00040F001000B68D8601A4B086898421BD090
:101AE0000868B0F1804F17D0174B0868984213D0A0
:101AF000164B086898420FD0154B086898420BD0D7
:101B0000144B0868984207D0134B0868984203D0DA
:101B1000124B086898420CD10868806800F00702F0
:101B2000062A0CD00868006840F001000B681860B5
:101B300005E00868006840F001000B6818600020AC
:101B4000C0E7000000000140000400400008004021
:101B5000000C00400004014000400140001800401B
:101B60002DE9F04104460D46002700BF94F83C00E3
:101B7000012802D10220BDE8F081012084F83C0058
:101B800000BF022084F83D002068866826F07706B2
:101B900026F47F46206886602868502833D00CDC05
:101BA000202850D004DC00284BD0102851D149E027
:101BB000302849D040284CD139E060282DD07028F9
:101BC00007D0B0F5805F03D0B0F5005F41D10DE0E4
:101BD00041E0D5E902136A68206801F0EEFE206852
:101BE000866846F077062068866034E0D5E90213FF
:101BF0006A68206801F0E1FE2068806840F4804057
:101C00002168886027E0EA686968206801F0C6FFFB
:101C10005021206801F0DCFE1DE0EA686968206858
:101C200001F0CFFF6021206801F0D2FE13E0EA68E6
:101C30006968206801F0B2FF4021206801F0C8FE09
:101C400009E000BF00BF00BF2968206801F0C0FEA6
:101C500001E0012700BF00BF012084F83D0000BF64
:101C6000002084F83C0000BF384684E7704770B518
:101C700004462068C5682068066906F0020002284C
:101C800019D105F00200022815D1401F2168086112
:101C9000012020772068806900F0030018B12046F9
:101CA000FFF7E4FF05E0204600F0EEF8204600F0E4
:101CB000A2F90020207706F00400042819D105F0CD
:101CC0000400042815D1C043216808610220207750
:101CD0002068806900F4407018B12046FFF7C6FF05
:101CE00005E0204600F0D0F8204600F084F90020FE
:101CF000207706F00800082819D105F00800082808
:101D000015D1C04321680861042020772068C0698C
:101D100000F0030018B12046FFF7A8FF05E02046B9
:101D200000F0B2F8204600F066F90020207706F0B7
:101D30001000102819D105F01000102815D1C0434B
:101D400021680861082020772068C06900F440708D
:101D500018B12046FFF78AFF05E0204600F094F80E
:101D6000204600F048F90020207706F0010048B135
:101D700005F0010030B16FF00100216808612046D4
:101D800000F0C0F906F08000802809D105F080003D
:101D9000802805D1C043216808612046FFF79CFDDB
:101DA00006F04000402809D105F04000402805D148
:101DB000C04321680861204600F0F0F906F02000D9
:101DC000202809D105F02000202805D1C043216832
:101DD00008612046FFF781FD70BD000010B586B098
:101DE0000446142101A8FEF7F8FA22492068884227
:101DF0001ED100BF002000901F48006840F008007E
:101E00001D4908600846006800F00800009000BF07
:101E100000BF4FF470400190022002900020039018
:101E200004900220059001A91448FEF735FE1FE03A
:101E30001349206888421BD100BF002000900E4843
:101E4000006840F001000C4908600846006800F096
:101E50000100009000BF00BF02200190029000200E
:101E6000039004900220059001A90648FEF714FE95
:101E700006B010BD0008004030380240000C02409F
:101E8000000C00400000024070472DE9F04104467C
:101E90000D461646002700BF94F83C00012802D1E9
:101EA0000220BDE8F081012084F83C0000BF36B17B
:101EB000042E1BD0082E31D00C2E5ED145E02946D1
:101EC000206801F08FFD2068806940F008002168DB
:101ED00088612068806920F004002168886120689A
:101EE0008069296908432168886148E0294620689B
:101EF00001F0B0FD2068806940F4006021688861CD
:101F00002068806920F48060216888612068806989
:101F1000296940EA01202168886130E0294620686B
:101F200001F0D6FD2068C06940F008002168C86152
:101F30002068C06920F004002168C8612068C06979
:101F4000296908432168C86119E02946206801F021
:101F5000FBFD2068C06940F400602168C86120680A
:101F6000C06920F480602168C8612068C06929695F
:101F700040EA01202168C86101E0012700BF00BFDD
:101F800000BF002084F83C0000BF384689E710B548
:101F900004460CB9012010BD94F83D0028B900207A
:101FA00084F83C00204600F025F8022084F83D002B
:101FB000211D206801F07CFC012084F8460000BF50
:101FC00084F83E0001213F20015540200155412069
:101FD000015500BF00BF012084F842004320015595
:101FE000442001554520015500BF012084F83D00E3
:101FF0000020D0E77047704770B504460D4615B90C
:1020000094F83E000BE0042D02D13F20005D06E075
:10201000082D02D14020005D01E04120005D012833
:1020200001D0012070BD1DB9022084F83E000EE0F1
:10203000042D03D102213F20015508E0082D03D1D2
:1020400002214020015502E00221412001550122D8
:102050002946206801F0A0FC23492068884203D06B
:1020600022492068884201D1012000E0002028B1E7
:102070002068406C40F40040216848641A49206898
:1020800088421BD02068B0F1804F17D018492068D3
:10209000884213D01749206888420FD0164920681B
:1020A00088420BD011492068884207D01349206824
:1020B000884203D01249206888420CD12068806889
:1020C00000F00706062E0CD02068006840F00100E2
:1020D0002168086005E02068006840F00100216880
:1020E000086000209EE7000000000140000401405D
:1020F0000004004000080040000C00400040014087
:102100000018004010B504462068B0F1804F0CD193
:1021100008F094FF1C4800680A2806DD1B48006888
:102120000A2802DD01201A4908601A4920688842FD
:1021300028D119480068012802D101F057FD21E09B
:1021400015480068022802D101F038FF1AE0124851
:102150000068032802D101F031FF13E00E48006847
:10216000042802D103F0B2FA0CE00B4800680528FD
:1021700002D105F0E9FE05E007480068062801D114
:1021800008F0CEFA10BD00003000002074000020DE
:102190005001002000080040D8010020704770471F
:1021A000704700002DE9F84F044620680568206854
:1021B000C668206847694FF00009CA4605F00F0954
:1021C000B9F1000F0AD105F0200038B106F0200067
:1021D00020B1204608F0E1FBBDE8F88FB9F1000F0F
:1021E0007CD007F0010018B906F49070002875D073
:1021F00005F0010030B106F4807018B1606C40F059
:102200000100606405F0040030B107F0010018B16E
:10221000606C40F00200606405F0020030B107F02D
:10222000010018B1606C40F00400606405F0080023
:1022300048B106F0200010B907F0010018B1606C39
:1022400040F008006064606C002846D005F0200073
:1022500028B106F0200010B1204608F09EFB20684F
:102260004069C0F3801A606C00F0080010B9BAF140
:10227000000F2DD0204608F037FB2068406900F0A1
:102280004000402820D100BF00BF2168143151E830
:10229000001F21F040002168143141E80002002AAB
:1022A000F3D100BFE06B50B17748E16B0865E06B9C
:1022B000FEF7E9F988B1E06B016D88470DE0204633
:1022C000FFF76EFF09E009E02046FFF769FF04E031
:1022D0002046FFF765FF002060647DE7206B012842
:1022E00078D105F01000002874D006F01000002806
:1022F000FAD000BF0020009020680068009020689D
:102300004068009000BF00BF2068406900F04000B6
:10231000402860D1E06B006840681FFA80F8B8F18F
:10232000000F56D0A08D404553DDA4F82E80E06B01
:10233000C069B0F5807F43D000BF00BF21680C3179
:1023400051E8001F21F4807021680C3141E800023F
:10235000002AF3D100BF00BF00BF2168143151E84B
:10236000001F21F001002168143141E80002002A19
:10237000F3D100BF00BF00BF2168143151E8001F36
:1023800021F040002168143141E80002002AF3D115
:1023900000BF202084F842000020206300BF00BF5F
:1023A00021680C3151E8001F21F0100021680C3128
:1023B00041E80002002AF3D100BFE06BFEF70DF9FF
:1023C00002206063A08DE28D801A81B22046FFF763
:1023D000E6FE01E742E0A08DE18D401A1FFA80F889
:1023E000E08DD0B3B8F1000F37D000BF00BF216837
:1023F0000C3151E8001F21F4907021680C3141E844
:102400000002002AF3D100BF00BF00BF21681431D1
:1024100051E8001F21F001002168143141E8000259
:10242000002AF3D100BF202084F84200002020635E
:1024300000BF00BF21680C3151E8001F21F01000DF
:1024400021680C3141E80002002AF3D100BF0220CC
:10245000606341462046FFF7A2FEBDE605F080001E
:1024600030B106F0800018B1204608F08FFCB3E6CA
:1024700005F0400030B106F0400018B1204608F0E9
:1024800069FAA9E600BFA7E6ADA7000810B50446A3
:102490000CB9012010BDA06900B100E000BF94F8A4
:1024A000410028B9002084F84000204600F02AF8B6
:1024B000242084F841002068C06820F4005021687E
:1024C000C860204608F0E8FA2068006920F49040CF
:1024D000216808612068406920F02A00216848616D
:1024E0002068C06840F400502168C8600020606423
:1024F000202084F8410084F842000020606300BF7F
:10250000C8E7000010B586B00446142101A8FDF705
:1025100064FF80492068884239D100BF00200090C4
:102520007D48006840F010007B490860084600685C
:1025300000F01000009000BF00BF00BF002000901E
:1025400075481438006840F0010073491439086078
:102550000846006800F00100009000BF00BF4FF483
:10256000C06001900220029000200390032004909C
:102570000720059001A96948FEF78EFA002211464E
:102580002520FEF729FC2520FEF712FCC0E0644957
:10259000206888427DD100BF002000905E48001F67
:1025A000006840F400305C49091F08600846006874
:1025B00000F40030009000BF00BF00BF002000907A
:1025C00055481438006840F0010053491439086038
:1025D0000846006800F00100009000BF00BF0C201A
:1025E0000190022002900020039003200490072015
:1025F000059001A94948FEF74FFA4A484A49086040
:102600004FF000604860002147488160C1604FF48E
:1026100080610161002141618161C1614FF48031BC
:10262000016200214162FEF763F908B1FDF7D2FFB4
:1026300000BF3D48E063846300BF3A4818303B491F
:1026400008604FF0006048604021384881600021F8
:10265000C1604FF480610161002141618161C1610C
:102660004FF48031016200214162FEF741F908B167
:10267000FDF7B0FF00BF2D48A063846300BF0022B8
:1026800011462620FEF7A8FB2620FEF791FB3FE02F
:10269000FFE72749206888423AD100BF0020009018
:1026A0001D48001F006840F480201B49091F086076
:1026B0000846006800F48020009000BF00BF00BF03
:1026C0000020009014481438006840F008001249B7
:1026D000143908600846006800F00800009000BF48
:1026E00000BF4FF440700190022002900020039040
:1026F000032004900720059001A90E48FEF7CCF9AD
:10270000002211462720FEF767FB2720FEF750FB2B
:1027100006B010BD001001404438024000000240E5
:10272000004400408860024048040020A8040020C3
:1027300000480040000C024070B504460D461646A5
:1027400094F8420020280BD105B10EB9012070BDCC
:102750000020206332462946204608F0B3FAF6E707
:102760000220F4E710B50446CB4884427ED1CB4822
:102770000078CB490870CB490870CB480068002826
:1027800075D1CA48007868B9C4480078F12809D1E1
:10279000C2480178C648C74A128881540120C349FB
:1027A0000870CBE0C1480078012811D1BB480078FF
:1027B000F2280DD1B9480178BE4802880088401C33
:1027C000BC4B1880BA4881540220B8490870B5E063
:1027D000B648007802287DD1B0480178B548028813
:1027E0000088401CB34B1880B148815418460088BB
:1027F000401EAF49085CF328D3D118460088001F5B
:10280000085C4000AC49086018460088C01EA84912
:10281000085C4000A949086018460088801EA44949
:10282000085CA7490860A7480068A7490860A7484E
:102830000068A7490860A2480068012807D19E489F
:102840000068A44908609D480068A34908609C4846
:102850000068022807D198480068A0490860974896
:1028600000689F4908609648006801E00EE173E047
:10287000032807D190480068924908608F48006893
:10288000984908608E480068042807D18A48006883
:10289000954908608948006894490860884800683C
:1028A000052807D18448006891490860834800687A
:1028B0009049086082480068062807D17E48006871
:1028C0008D4908607D4800688C4908607C48006834
:1028D000072800E024E007D17748006888490860AD
:1028E000764800687949086075480068082807D16B
:1028F0007148006883490860704800688249086030
:102900006F480068092807D16B4800687F49086054
:102910006A4800687E4908600320644908700DE039
:1029200062480078032809D1002062490880C82144
:102930005F48FDF752FD00205C4908705D48008843
:10294000C72809DD00205B490880C8215848FDF7E9
:1029500044FD0020554908706E48007868B9514818
:1029600000784B2809D14F4800786B496B4A128890
:1029700088540120674908707AE066480078012889
:1029800011D1484800784C280DD146480178634859
:1029900002880088401C614B18805F4881540220E7
:1029A0005C49087064E05B480078022852D13D48D9
:1029B00001785A4802880088401C584B18805648B5
:1029C000815418460088401E5349085C4D284FD159
:1029D000184600880A38085C514908601846008883
:1029E00009384D49085C4F49086018460088083886
:1029F0004949085C4C49086018460088C01F464990
:102A0000085C4A49086018460088801F4249085CF3
:102A10004749086018460088401F3F49085C4549FF
:102A2000086018460088001F3B49085C424908605E
:102A300018460088C01E3849085C4049086018469E
:102A40000088801E3449085C3D49086003203149F4
:102A500008700DE02F480078032809D100202F4985
:102A60000880C8212C48FDF7B8FC002029490870CF
:102A70002A480088C72809DD002028490880C82185
:102A80002548FDF7AAFC00202249087001220349CD
:102A90000148FFF751FE10BDB803002022000020BE
:102AA000AE000020860000205001002023000020FE
:102AB00030050020200000202400002028000020F5
:102AC0002C000020300000202C0100207400002089
:102AD0003001002060000020640000204800002039
:102AE0004C00002034000020680000206C00002012
:102AF0005000002054000020380000203C0000203E
:102B000070000020580000205C00002040000020E1
:102B1000440000208700002064060020840000207C
:102B2000A00000209400002088000020A4000020C5
:102B3000980000208C000020A80000209C000020AD
:102B4000900000207047704700BFFEE72DE9F0417C
:102B500004460D4616461F462A2000F0CDFAA11C59
:102B600088B200F0B9FAB11C88B200F0B5FA2B2097
:102B700000F0C2FA691C88B200F0AEFA791C88B283
:102B800000F0AAFA2C2000F0B7FABDE8F08170B589
:102B900004460D4616462B46224629462046FFF798
:102BA000D5FF304600F098FA70BD2DE9F047064693
:102BB0000F4614461D46DDF820A0681E83B2601E35
:102BC00082B239463046FFF7C1FFB8460EE0B14643
:102BD00006E0504600F080FA09F101001FFA80F982
:102BE000A145F6DB08F101001FFA80F8A845EEDBED
:102BF000BDE8F08710B5002210217C48FEF758F898
:102C00006420FDF735FF012210217848FEF750F8C7
:102C10006420FDF72DFF012280217548FEF748F85A
:102C20006420FDF725FF112000F066FA7820FDF7FB
:102C30001FFFB12000F060FA052000F056FA3C209A
:102C400000F053FA3C2000F050FAB22000F054FAA1
:102C5000052000F04AFA3C2000F047FA3C2000F042
:102C600044FAB32000F048FA052000F03EFA3C2078
:102C700000F03BFA3C2000F038FA052000F035FA6D
:102C80003C2000F032FA3C2000F02FFAB42000F093
:102C900033FA032000F029FAC02000F02DFA282092
:102CA00000F023FA082000F020FA042000F01DFABA
:102CB000C12000F021FAC02000F017FAC22000F075
:102CC0001BFA0D2000F011FA002000F00EFAC320CC
:102CD00000F012FA8D2000F008FA2A2000F005FA20
:102CE000C42000F009FA8D2000F0FFF9EE2000F07A
:102CF000FCF9C52000F000FA1A2000F0F6F93620A1
:102D000000F0FAF9C02000F0F0F9E02000F0F4F94A
:102D1000042000F0EAF9222000F0E7F9072000F093
:102D2000E4F90A2000F0E1F92E2000F0DEF930206D
:102D300000F0DBF9252000F0D8F92A2000F0D5F9C1
:102D4000282000F0D2F9262000F0CFF92E2000F044
:102D5000CCF93A2000F0C9F9002000F0C6F90120B2
:102D600000F0C3F9032000F0C0F9132000F0BDF912
:102D7000E12000F0C1F9042000F0B7F9162000F0BE
:102D8000B4F9062000F0B1F90D2000F0AEF92D20C5
:102D900000F0ABF9262000F0A8F9232000F0A5F9F7
:102DA000272000F0A2F9272000F09FF9252000F04D
:102DB0009CF92D2000F099F93B2000F096F90020B5
:102DC00000F093F9012000F090F9042000F08DF953
:102DD000132000F08AF93A2000F08EF9052000F067
:102DE00084F9292000F088F910BD00000008024095
:102DF000001002402DE9FF5F80468A4617469B4639
:102E00000F9D00200290CDF80080284605EBD07180
:102E1000C1F347042046E21704EB5272D210214658
:102E2000E31704EB5373DB10A4EBC3030BB10123D3
:102E300000E000231A446A4392B20192A7F12000F5
:102E4000C7B20AEB0500401E83B208EB0400401E27
:102E500082B251464046FFF779FE002669E00C2D0C
:102E600007D107EB4700354901EB8000805D0390F7
:102E70001BE0102D05D1324800EB0710805D039058
:102E800013E0182D07D107EB47002E4901EB001086
:102E9000805D039009E0202D05D12B4800EB8710C1
:102EA000805D039001E0BDE8FF9F4FF000093AE02C
:102EB0001098C8B9012000FA09F00399084018B128
:102EC000584600F009F902E00E9800F005F9029862
:102ED000401CC0B20290029890FBF4F104FB110078
:102EE000E8B90020029021E0012000FA09F00399DE
:102EF000084020B15A4651464046FFF748FE08F1C7
:102F000001001FFA80F80098A8EB0000A04206D14B
:102F1000DDF800800AF101001FFA80FA06E009F1ED
:102F2000010000F0FF09B9F1080FC1DB00BF701C00
:102F300086B20198864292DB00BFB4E7C2C70008A0
:102F400036CC000826D20008F6E300082DE9FF4F32
:102F50002DED020B2DED028B83B00746B0EE408ABB
:102F60001446DDE91486304606EBD071C1F3470AFA
:102F70009FED220A28EE000ABCEEC00A10EE100AED
:102F80001FFA80FB002530E0601B401EC1B20A2002
:102F900008F046FFBBFBF0F00A21B0FBF1F201FBA9
:102FA0001209A01EA84210D10020A11E01FB0A7127
:102FB000CDE90086029088B22E220A9B0899FFF77D
:102FC00019FF681CC5B2601CC4B2002009F13001B1
:102FD000CAB205FB0A71CDE90086029088B20A9B4D
:102FE0000899FFF707FF681CC5B2A542CCDB03B008
:102FF000BDEC028B06B0BDE8F08F00000000C842B7
:103000002DE9FF4F85B0074691461D46DDE913A621
:1030100000200490304606EBD071C1F3470B00242A
:1030200034E0281B401EC1B20A2008F0F9FEB9FBAB
:10303000F0F00A21B0FBF1F201FB12080498A0B9EC
:10304000681EA04211DDB8F1000F0CD1002004FB76
:103050000B71CDE900A6029088B22022129B06993E
:10306000FFF7C8FE10E001200490002008F13001B5
:10307000CAB204FB0B71CDE900A6029088B2129B84
:103080000699FFF7B7FE00BF601CC4B2AC42C8DBB4
:1030900009B0BDE8F08F2DE9FE4F06460F461446F5
:1030A0009846DDE90D5ADDF8309010E0CDE9015A7F
:1030B000CDF800902278434639463046FFF79AFE15
:1030C000284605EBD07106EB61018EB2641C2078B6
:1030D0000028EBD1BDE8FE8F10B50446201200F0A9
:1030E0001DF8E0B200F01AF810BD10B504462046F5
:1030F00000F014F810BD000010B504460022202195
:103100000548FDF7D5FD204600F008F801222021F2
:103110000148FDF7CDFD10BD0008024001B50022B9
:1031200010210848FDF7C4FD4FF47A730122694667
:103130000548FEF7D9FA012210210248FDF7B8FD33
:1031400008BD0000000002404002002008B500BF9A
:10315000002000900E48006840F400100C49086000
:103160000846006800F40010009000BF00BF002275
:1031700011461020FDF730FE1020FDF719FE002249
:1031800011461120FDF728FE1120FDF711FE08BDA4
:103190003038024000B587B0142102A8FDF71DF9B0
:1031A00000BF002001906B48006840F010006949A2
:1031B00008600846006800F01000019000BF00BFE2
:1031C00000BF002001900846006840F0040008603D
:1031D0000846006800F00400019000BF00BF00BF77
:1031E000002001900846006840F080000860084612
:1031F000006800F08000019000BF00BF00BF002009
:1032000001900846006840F0010008600846006828
:1032100000F00100019000BF00BF00BF002001903E
:103220000846006840F0080008600846006800F0A2
:103230000800019000BF00BF00BF002001900846B9
:10324000006840F0020008600846006800F00200D4
:10325000019000BF00BF00224FF400513E48FDF72F
:1032600027FD012210213D48FDF722FD01223021DA
:103270003948FDF71DFD012280213948FDF718FD71
:10328000012291023748FDF713FD002240F6FF01AD
:103290003448FDF70DFD0022C8213348FDF708FD35
:1032A00074200290002003900120049002A92C4871
:1032B000FDF7F2FB0820029000200390049002A981
:1032C0002748FDF7E9FB4FF40050029001200390DE
:1032D00000200490059002A91F48FDF7DDFB102097
:1032E00002900120039004900220059002A91B483F
:1032F000FDF7D2FB302002900120039004900220C1
:10330000059002A91448FDF7C7FB80200290012018
:10331000039004900220059002A91148FDF7BCFB20
:1033200040F6FF4002900120039000200490059099
:1033300002A90C48FDF7B0FBC820029001200390C1
:1033400000200490059002A90748FDF7A5FB07B0EF
:1033500000BD00003038024000080240000002407A
:1033600000100240000C02400004024010B50E485C
:103370000E4908604FF48270486000210B4881605C
:10338000C160016141614FF4007181610821C16137
:1033900000210162416281620A21C162FEF7FCF8EC
:1033A00008B1FDF717F910BD0030014040020020C0
:1033B00000B587B00020039004900590069001901E
:1033C00002904FF08040144908605320486000216B
:1033D0001148816042F21071C16000210161816178
:1033E000FEF7D6FA08B1FDF7F5F84FF480500390D8
:1033F00003A90948FEF7B4FB08B1FDF7EBF800207C
:103400000190029001A90448FEF768FA08B1FDF79F
:10341000E1F807B000BD00009802002000B58DB0B3
:10342000002009900A900B900C90079008901C21A6
:103430006846FCF7D2FF2C482C49086029204860D8
:1034400000212A48816040F28F11C1600021016192
:103450008161FEF79DFA08B1FDF7BCF84FF480508A
:10346000099009A92148FEF77BFB08B1FDF7B2F8E6
:103470001E48FEF78CFD08B1FDF7ACF80020079060
:10348000089007A91948FEF729FA08B1FDF7A2F834
:103490006020009000200190029004900022694674
:1034A0001248FEF7F2FC08B1FDF794F804226946D1
:1034B0000E48FEF7EAFC08B1FDF78CF808226946D1
:1034C0000A48FEF7E2FC08B1FDF784F80C226946D1
:1034D0000648FEF7DAFC08B1FDF77CF80348FEF772
:1034E0007DFC0DB000BD000000080040E00200209F
:1034F00000B58DB0002009900A900B900C900790B9
:1035000008901C216846FCF768FF204820490860A5
:10351000A720486000211E48816041F28731C160C8
:10352000002101618161FEF733FA08B1FDF752F81D
:103530004FF48050099009A91548FEF711FB08B116
:10354000FDF748F81248FEF722FD08B1FDF742F8F2
:1035500000200790089007A90D48FEF7BFF908B1B1
:10356000FDF738F860200090002001900290049050
:10357000042269460648FEF788FC08B1FDF72AF8E0
:103580000348FEF72BFC0DB000BD0000000C00400E
:103590002803002010B50B480B4908604FF4E130B8
:1035A0004860002108488160C16001610C214161CF
:1035B00000218161C161FEF769FF08B1FDF70AF8DA
:1035C00010BD0000001001407003002010B50B4832
:1035D0000B4908604FF4E1304860002108488160E1
:1035E000C16001610C21416100218161C161FEF76F
:1035F0004DFF08B1FCF7EEFF10BD00000044004095
:10360000B803002010B50B480B4908604FF4E130B7
:103610004860002108488160C16001610C2141615E
:1036200000218161C161FEF731FF08B1FCF7D2FFD3
:1036300010BD0000004800400004002000BFFEE76D
:1036400000BFFEE7704700007CB504460E461546F5
:103650003346012202212046009500F039F828B1B6
:10366000606D40F02000606503207CBD1648006856
:103670001821B0FBF1F01549B0FBF1F04FF47A716D
:10368000484301906068B0F5827F0DD13346002237
:1036900080212046009500F01BF898B1606D40F045
:1036A000200060650320E0E700BF019800B908E052
:1036B0000198401E019020688068C0F3C010002867
:1036C000F3D100BF0020D0E70C00002040420F00E3
:1036D0002DE9F84F04460D4690461E46DDF8289029
:1036E000FDF7ECFAA0EB0900371AFDF7E7FA82467E
:1036F0002C480068C0F3CB307843009045E0701C44
:10370000002842D0FDF7DAFAA0EB0A00B84200D256
:10371000A7BB2068406820F0E0002168486060682E
:10372000B0F5827F0DD1A068B0F5004F03D0A0683E
:10373000B0F5806F05D12068006820F04000216856
:103740000860A06AB0F5005F0DD100BF2068006876
:1037500020F40050216808602068006840F40050A0
:103760002168086000BF012084F8510000BF0020DC
:1037700084F8500000BF0320BDE8F88FFFE70098F1
:1037800000B900270098401E0090206880682840FB
:10379000A84201D1012000E000204045AFD1002027
:1037A000EAE700000C000020704710B5FDF78CFA26
:1037B00010BD000000B593B0302107A8FCF70DFE46
:1037C000142102A8FCF709FE00BF00200190254843
:1037D000006840F08050234908600846006800F007
:1037E0008050019000BF00BF00BF002001901E4824
:1037F000006840F480401C4908600846006800F4F6
:103800008040019000BF00BF0220079001200A9075
:1038100010200B9002200D9000210E9108210F9195
:10382000A8211091022111910721129107A8FDF7FB
:1038300065FC08B1FCF7CEFE0F2002900220039039
:10384000002004904FF4A05005904FF48050069053
:10385000052102A8FDF712FB08B1FCF7BBFE13B06F
:1038600000BD00004038024000700040034800687E
:1038700040F47000014908607047000088ED00E0E6
:1038800010B50248FEF7F3F910BD000098020020C1
:1038900010B50248FEF7EBF910BD0000E002002071
:1038A00010B50248FEF7E3F910BD00002803002020
:1038B00010B502682D4B98420ED0B0F1804F0BD05E
:1038C0002B4B984208D02B4B984205D02A4B98425C
:1038D00002D02A4B984203D122F070024B681A435F
:1038E000224B984220D0B0F1804F1DD0204B9842FF
:1038F0001AD0204B984217D01F4B984214D01F4B20
:10390000984211D01E4B98420ED01E4B98420BD0BD
:103910001D4B984208D01D4B984205D01C4B984235
:1039200002D01C4B984203D122F44072CB681A4358
:1039300022F080034C6943EA040202608B68C36290
:103940000B688362094B984202D00C4B984201D11C
:103950000B69036301234361036903F001031BB196
:10396000036923F00103036110BD00000000014062
:103970000004004000080040000C0040000401402A
:103980000040014000440140004801400018004050
:10399000001C00400020004030B501F01F0501244C
:1039A00004FA05F3046A9C430462046A01F01F05EB
:1039B00002FA05F52C43046230BD30B50C4681682F
:1039C00021F47F4142EA032525432943816030BD2C
:1039D0000A46816821F0700142F0070319438160B3
:1039E0007047000030B5026A056A25F001050562DE
:1039F0004368846924F0700424F003040D682C43A8
:103A000022F002028D682A43104DA84200D103E043
:103A10000F4DA84206D100BF22F00802CD682A430C
:103A200022F00402094DA84202D0094DA84207D154
:103A300023F4807323F400734D692B438D692B436A
:103A4000436084614D684563026230BD00000140FF
:103A50000004014030B5026A056A25F010050562D0
:103A60004368846924F4E04424F440740D6844EA13
:103A7000052422F020028D6842EA0512124DA84268
:103A800000D103E0114DA84207D100BF22F080020F
:103A9000CD6842EA051222F040020B4DA84202D046
:103AA0000A4DA84209D123F4806323F400634D69D1
:103AB00043EA85038D6943EA8503436084614D6869
:103AC0008563026230BD0000000001400004014037
:103AD00030B5026A056A25F4807505624368C469D9
:103AE00024F0700424F003040D682C4322F40072C7
:103AF0008D6842EA0522124DA84200D103E0114D23
:103B0000A84207D100BF22F40062CD6842EA052234
:103B100022F480620A4DA84202D00A4DA84209D17F
:103B200023F4805323F400534D6943EA05138D6950
:103B300043EA05134360C4614D68C563026230BD4A
:103B4000000001400004014030B5036A056A25F415
:103B5000805505624468C26922F4E04222F4407252
:103B60000D6842EA052223F400538D6843EA0533C9
:103B7000084DA84202D0084DA84204D124F4804444
:103B80004D6944EA85144460C2614D68056403626E
:103B900030BD0000000001400004014030B50B467C
:103BA0001446026A056A25F001050562816921F063
:103BB000F00141EA041122F00A021A438161026213
:103BC00030BD30B50B461446026A056A25F0100573
:103BD0000562816921F4704141EA043122F0A002BA
:103BE00042EA03128161026230BD000008B5012083
:103BF000D74908600020D74908600520D6490860E9
:103C0000D64908600120D6490860084600680128A6
:103C10007ED107F0ADFAD3480068401CD149086056
:103C200008460068B0F5FA7F0ADDCF4890ED000A3B
:103C3000DFEDCE0A30EE200A80ED000A0020086099
:103C4000CB48006808BBCB480068F0B9C0480068A2
:103C500001281AD1BF480068B8B9BF4800680528D4
:103C600007D1C548006820B9022141F2707008F000
:103C7000BFFCB9480068052807D1C048006820B9D2
:103C800002214FF4615008F029FDBB48006801286B
:103C900009D1BA480068012805D1B948006810B9AF
:103CA0000120B3490860B2480068012804D1B44833
:103CB000006808B908F036FCAF48006801280AD14E
:103CC000AE480068012806D1AD480068012802D13D
:103CD0000220A7490860A6480068022832D10020C7
:103CE000A8490860A8490860A8480068401CA7497E
:103CF000086097480068012824D19648006808BBEE
:103D000095480068052810D19B480068012800E00C
:103D10001CE10AD10846006841F28831884204DD7E
:103D2000012141F2707008F063FC8B48006805289F
:103D300008D192480068012804D101214FF4615054
:103D400008F0CCFC8C480068022811D18B48006830
:103D500002280DD18A480068012809D184480068EA
:103D6000032805D0002089490860032080490860A5
:103D70007F480068032863D184480068401C834959
:103D8000086008460068B0F5FA7F29DD73480068CE
:103D9000052825D178480068022821D17C48006890
:103DA0007C490968401A00EB401000EB4000642198
:103DB00090FBF1F078490968784A1268891A01EB9A
:103DC00041014900642291FBF2F10844C0EB00106C
:103DD00080007349086002217148006808F008FCFF
:103DE0006A480068B0F5FA7F2ADD5C48006805285B
:103DF00026D162480068022822D1674800686749D6
:103E00000968401A00EB401000EB4000642190FB71
:103E1000F1F05F4909685F4A1268891A01EB4101B4
:103E20004900642291FBF2F1401AC0EB00108000BF
:103E300040425C49086002215A48006808F04EFC84
:103E40004D480068032811D14C48006803280DD163
:103E50004B480068012809D145480068042805D06E
:103E600000204A4908600420414908604048006831
:103E7000042805D142480068012801D108F04CF916
:103E80003D48006803280AD13C480068032806D151
:103E90003B480068022802D10520354908603448B3
:103EA000006805281ED100203649086036490860A0
:103EB0002A480068052808D12F480068032804D143
:103EC00001213748006808F093FB24480068052862
:103ED00008D12A480068032804D10121314800682C
:103EE00008F0FCFB2448006804282FD12348006810
:103EF00004282BD107F032F9002202212A48FCF7CE
:103F0000D7FE002204212848FCF7D2FE002201211E
:103F10002548FCF7CDFE06F0D1FF002010490860CF
:103F20000120224908600020214908600120214920
:103F300008604FF45E70204908604FF6FF70A023C0
:103F40008022002100900846FEF72FFE08BD0000E9
:103F50008C01002090010020B80100209401002075
:103F60005C010020E0010020E4010020CDCCCC3D2C
:103F7000DC01002060010020F4010020F801002095
:103F8000FC0100200002002004020020700100203B
:103F90005000002078000020540000207C00002009
:103FA000380200203C020020000C024014000020D7
:103FB000180000201C000020D801002010B5F8488F
:103FC0000068092802DD0120F5490860F548807A7B
:103FD00001280BD14103F448FCF760FEF04800686B
:103FE000401CEF4908600021EE488172ED4880785E
:103FF00001282DD1ED48006838B9E9480068EB493F
:1040000008600120E64908601FE0E948006838B907
:10401000E3480068E64908600120E149086014E0CF
:10402000E448006838B9DE480068E24908600120C9
:10403000DB49086009E0E048006830B9D84800680A
:10404000DD4908600120D64908600020D549887004
:10405000DA480068F8B90420D9490860D3480068F4
:10406000D84908600120D84908600020D749086075
:10407000D448006878B1D048006860B10020D449C5
:1040800008609FEDD40AD44880ED000A07F066F876
:104090000120D2490860C948006801281FD10520C5
:1040A000C7490860C2480068C64908600120C6497F
:1040B00008600020C5490860C248006878B1BE4861
:1040C000006860B10020C24908609FEDC20AC24882
:1040D00080ED000A07F042F80120C0490860B748A7
:1040E000006802281FD10420B5490860B148006863
:1040F000B44908600020B44908600120B349086051
:10410000B048006878B1AC48006860B10020B049A0
:1041100008609FEDB00AB04880ED000A07F01EF875
:104120000120AE490860A548006803281FD105207A
:10413000A3490860A0480068A24908600020A2497D
:1041400008600120A14908609E48006878B19A483B
:10415000006860B100209E4908609FED9E0A9E485D
:1041600080ED000A06F0FAFF01209C4908609B4898
:104170000068012841F082828F480068002801F021
:104180007D8293480068401C914908600846006899
:10419000B0F5FA7F0ADD904890ED000ADFED900A55
:1041A00030EE200A80ED000A002008608D4800688B
:1041B00000286ED18448006801284FD183480068E8
:1041C00000284BD17E480068012808D18648006845
:1041D00028B9022142F2107008F00AFA32E0784859
:1041E0000068022808D18048006828B902214FF4ED
:1041F000FA5008F0FDF925E071480068032808D15D
:104200007948006828B9022141F2707008F0F0F98D
:1042100018E06B480068042808D17348006828B982
:1042200002214FF47A6008F0E3F90BE0644800687B
:10423000052807D16C48006820B902214FF4FA60C4
:1042400008F0D6F95E480068012808D16748006880
:1042500028B902214FF4615008F040FA33E0584881
:104260000068022808D16148006828B902214FF48B
:10427000615008F033FA26E051480068032809D15C
:104280005A48006830B902214FF4615008F026FA0C
:1042900019E06BE04A480068042808D153480068D8
:1042A00028B902214FF4615008F018FA0BE0444895
:1042B0000068052807D14D48006820B902214FF455
:1042C000615008F00BFA4048006800284ED13F4882
:1042D000006801284AD13A480068012808D14248BC
:1042E000006828B9022142F2107008F081F932E02A
:1042F00033480068022808D13B48006828B90221E9
:104300004FF4FA5008F074F925E02D4800680328AE
:1043100008D13548006828B9022141F2707008F0D0
:1043200067F918E026480068042808D12E4800687C
:1043300028B902214FF47A6008F05AF90BE02048BE
:104340000068052807D12848006820B902214FF4E9
:10435000FA6008F04DF91A480068012807D123488F
:10436000006820B90221224808F0B8F959E0144841
:104370000068022807D11D48006820B902211C48A6
:1043800008F0ACF94DE00E480068032832D1174818
:10439000006820B90221164808F0A0F941E029E0A0
:1043A0009801002008050020000802409C01002020
:1043B000A0010020A4010020A8010020E8010020A5
:1043C000B8010020940100208C0100209001002001
:1043D000E001002000000000E40100205C0100205A
:1043E000CDCCCC3DDC010020F4010020F801002000
:1043F00070FEFFFFFC480068042807D1FB480068F6
:1044000020B90221FA4808F069F90AE0F648006884
:10441000052806D1F548006818B90221F44808F0CB
:104420005DF9F4480068012809D1F04800680128C6
:1044300005D1F148006810B90120F0490860EF4843
:104440000068012804D1EC48006808B908F06AF84F
:10445000E848006801280AD1E4480068012806D12C
:10446000E5480068012802D10220E4490860E348D9
:10447000006802287BD10020E1490860E14908601A
:10448000E148006801283AD1E0480068B8BBD64846
:104490000068012809D1D7480068012805D1012109
:1044A00042F2107008F0A4F837E0CF480068022804
:1044B00009D1D0480068012805D101214FF4FA50F4
:1044C00008F096F829E0C8480068032809D1C948CF
:1044D0000068012805D1012141F2707008F088F8C8
:1044E0001BE0C148006804280AD1C24800680128BE
:1044F00006D101214FF47A6008F07AF80DE052E01D
:10450000B9480068052808D1BA480068012804D1D4
:1045100001214FF4FA6008F06BF8B34800680128F5
:1045200009D1B2480068012805D101214FF461503A
:1045300008F0D4F837E0AC480068022809D1AB484D
:104540000068012805D101214FF4615008F0C6F838
:1045500029E0A548006803280AD1A448006801287A
:1045600006D101214FF4615008F0B8F81BE059E082
:104570009D480068042809D19C480068012805D19D
:1045800001214FF4615008F0A9F80CE0964800684A
:10459000052808D195480068012804D101214FF46D
:1045A000615008F09BF898480068D8BB97480068AD
:1045B000012837D18C480068012809D18D4800684E
:1045C000012805D1012142F2107008F011F837E0FE
:1045D00085480068022809D186480068012805D16D
:1045E00001214FF4FA5008F003F829E07E480068F2
:1045F000032809D17F480068012805D1012141F233
:10460000707007F0F5FF1BE07748006804280AD1B6
:1046100078480068012806D101214FF47A6007F03C
:10462000E7FF0DE04CE070480068052808D17148AC
:104630000068012804D101214FF4FA6007F0D8FF87
:1046400069480068012808D168480068012804D139
:104650000121674808F042F832E063480068022808
:1046600008D162480068012804D10121604808F09F
:1046700035F825E05C480068032808D15B480068ED
:10468000012804D101215A4808F028F818E05648BA
:104690000068042808D155480068012804D1012188
:1046A000534808F01BF80BE04F480068052807D175
:1046B0004E480068012803D101214D4808F00EF84A
:1046C0004C48006802280AD148480068022806D1F0
:1046D00049480068012802D103204849086047483A
:1046E000006803287ED14A480068401C4849086099
:1046F0004848006806282CD13E480068022828D186
:104700004548006845490968401A00EB401000EB35
:104710004000642190FBF1F041490968414A126868
:10472000891A01EB41014900642291FBF2F108442E
:10473000C0EB001080003C4908603548006840F636
:10474000AC51884204DD02213748006807F050FF71
:10475000B3E13048006805282CD1264800680228BB
:1047600028D1324800682D490968401A00EB4010F2
:1047700000EB4000642190FBF1F12D480068294ACC
:104780001268801A00EB40004000642290FBF2F0B7
:104790000844C0EB00108000234908601C480068F2
:1047A00040F6AC518842D3DD02211F48006807F073
:1047B0001FFF82E117480068042859D10D4800689E
:1047C000022855D11B48006814490968401A00EBBB
:1047D000401000EB4000642190FBF1F0164909689D
:1047E000104A2BE09AE10000B8010020F8010020F7
:1047F00070FEFFFFF4010020FC010020DC0100201E
:1048000000020020040200208C0100209001002002
:104810007001002094010020580000207800002042
:104820005C0000207C0000203802002050000020A6
:1048300054000020480000204C0000201268891A13
:1048400001EB41014900642291FBF2F10844C0EB05
:1048500000108000FD490860FD48006840F6AC513A
:10486000884204DD0221F948006807F0C1FE24E116
:10487000F848006807282CD1F7480068022828D19A
:10488000F6480068F6490968401A00EB401000EB52
:104890004000642190FBF1F1F2480068F24A12688E
:1048A000801A00EB40004000642290FBF2F00844C4
:1048B000C0EB00108000E5490860E548006840F65C
:1048C000AC51884204DD0221E048006807F090FE08
:1048D000F3E0E048006808282CD1DF48006802288F
:1048E00028D1E2480068DE490968401A00EB401010
:1048F00000EB4000642190FBF1F0DD490968DA4AE1
:104900001268891A01EB41014900642291FBF2F11E
:104910000844C0EB00108000CC490860CC48006817
:1049200040F6AC51884204DD0221C848006807F017
:104930005FFEC2E0C748006809282CD1C64800685D
:10494000022828D1CB480068C5490968401A00EB05
:10495000401000EB4000642190FBF1F1C648006874
:10496000C14A1268801A00EB40004000642290FBAC
:10497000F2F00844C0EB00108000B4490860B4486D
:10498000006840F6AC51884204DD0221AF4800685F
:1049900007F02EFE91E0AF48006801282CD1AE4808
:1049A0000068022828D1B5480068AD490968401A56
:1049B00000EB401000EB4000642190FBF1F1A948AE
:1049C0000068A94A1268801A00EB40004000642287
:1049D00090FBF2F00844C0EB001080009B49086097
:1049E0009B48006840F6AC51884266DD022197483A
:1049F000006807F0FDFD60E09648006802282CD1B1
:104A000095480068022828D19D48006894490968A3
:104A1000401A00EB401000EB4000642190FBF1F0E5
:104A200093490968904A1268891A01EB41014900CB
:104A3000642291FBF2F10844C0EB0010800083492E
:104A400008608348006840F6AC51884235DD022199
:104A50007E48006807F0CCFD2FE07E480068032800
:104A60002BD17D480068022827D1864800687C4900
:104A70000968401A00EB401000EB4000642190FBF5
:104A8000F1F17D480068784A1268801A00EB400016
:104A90004000642290FBF2F00844C0EB001080005C
:104AA0006A4908606A48006840F6AC51884204DDF3
:104AB00002216648006807F09BFD664800680128EF
:104AC0002DD171480068022829D1704800686649D4
:104AD0000968401A00EB401000EB4000642190FB95
:104AE000F1F0664909685E4A1268891A01EB4101D2
:104AF0004900642291FBF2F1401AC0EB00108000E3
:104B00004042634908605248006840F6B831884224
:104B100004DD02215E48006807F0E0FDBBE14D487E
:104B2000006802282DD158480068022829D1594828
:104B300000684D490968401A00EB401000EB400046
:104B4000642190FBF1F04E490968454A1268891AC0
:104B500001EB41014900642291FBF2F1401AC0EBE4
:104B60000010800040424A4908603948006840F619
:104B7000B831884204DD02214548006807F0AEFDE7
:104B800089E13448006803282DD13F480068022895
:104B900029D14148006834490968401A00EB4010A7
:104BA00000EB4000642190FBF1F0364909682C4A83
:104BB0001268891A01EB41014900642291FBF2F16C
:104BC000401AC0EB00108000404231490860204884
:104BD000006840F6B831884204DD02212C480068A4
:104BE00007F07CFD57E11B48006804285AD126488D
:104BF0000068022856D1294800681B490968401AF4
:104C000000EB401000EB4000642190FBF1F02449E0
:104C10000968134A1268891A01EB410149006422AC
:104C200091FBF2F1401AC0EB00108000404218499D
:104C300008600748006840F6B831884204DD022168
:104C40001348006807F04AFD25E100003802002003
:104C50007001002094010020F40100206000002079
:104C600078000020640000207C0000206800002004
:104C70006C00002070000020740000203000002034
:104C80003800002040000020F801002034000020FF
:104C90003C0200203C000020440000204C0000208A
:104CA00048000020FE48006805282DD1FD48006816
:104CB000022829D1FC480068FC490968401A00EB29
:104CC000401000EB4000642190FBF1F0F8490968C6
:104CD000F84A1268891A01EB41014900642291FBEC
:104CE000F2F1401AC0EB001080004042F249086027
:104CF000F248006840F6B831884204DD0221EE48EF
:104D0000006807F0EBFCC6E0E548006806282DD1F6
:104D1000E4480068022829D1E9480068E3490968A5
:104D2000401A00EB401000EB4000642190FBF1F1D1
:104D3000E4480068DF4A1268801A00EB4000400037
:104D4000642290FBF2F0081AC0EB00108000404291
:104D5000D9490860D948006840F6B831884204DD76
:104D60000221D548006807F0B9FC94E0CC480068FF
:104D700007282DD1CB480068022829D1D2480068E5
:104D8000CA490968401A00EB401000EB400064215A
:104D900090FBF1F0CD490968C64A1268891A01EB07
:104DA00041014900642291FBF2F1401AC0EB00106E
:104DB00080004042C0490860C048006840F6B831F1
:104DC000884268DD0221BC48006807F087FC62E089
:104DD000B348006808282DD1B2480068022829D1BC
:104DE000BB480068B1490968401A00EB401000EB6D
:104DF0004000642190FBF1F1B6480068AD4A1268AA
:104E0000801A00EB40004000642290FBF2F0081A88
:104E1000C0EB001080004042A7490860A748006826
:104E200040F6B831884236DD0221A348006807F019
:104E300055FC30E09A48006809282CD19948006850
:104E4000022828D1A448006898490968401A00EB54
:104E5000401000EB4000642190FBF1F09F4909688D
:104E6000944A1268891A01EB41014900642291FBBE
:104E7000F2F1401AC0EB0010800040428E490860F9
:104E80008E48006840F6B831884204DD02218A4825
:104E9000006807F023FC92480068032811D181487C
:104EA000006803280DD18F480068012809D18E4879
:104EB0000068042805D000208049086004208A4941
:104EC000086089480068042805D1864800680128E0
:104ED00001D107F021F98248006803280AD17148FE
:104EE0000068032806D17F480068022802D1052007
:104EF0007D4908607C48006805287DD100207B49F9
:104F000008607B4908606D480068401C6B49086078
:104F10000846006840F6AC51884229DD60480068C8
:104F2000062826D16E480068032822D1654800680B
:104F300060490968401A00EB401000EB4000642112
:104F400090FBF1F15E480068584A1268801A00EB45
:104F500040004000642290FBF2F00844C0EB0010D7
:104F600080006449086001216248006807F040FB46
:104F70008AE14B480068052826D159480068032873
:104F800022D14B4800684B490968401A00EB401099
:104F900000EB4000642190FBF1F143480068434A74
:104FA0001268801A00EB40004000642290FBF2F08F
:104FB0000844C0EB001080004E49086001214D48B4
:104FC000006807F015FB5FE135480068042828D128
:104FD00043480068032824D14748006835490968D8
:104FE000401A00EB401000EB4000642190FBF1F010
:104FF000424909682D4A00E077E11268891A01EBFD
:1050000041014900642291FBF2F10844C0EB001019
:1050100080003849086001213648006807F0E8FA46
:1050200032E11F480068072826D12D480068032870
:1050300022D1264800681F490968401A00EB401039
:1050400000EB4000642190FBF1F01F490968174A0A
:105050001268891A01EB41014900642291FBF2F1C7
:105060000844C0EB0010800022490860012121485B
:10507000006807F0BDFA07E109480068082858D120
:1050800017480068032854D1124800680949096884
:10509000401A00EB401000EB4000642130E00000BB
:1050A00094010020F8010020540000207C00002022
:1050B00050000020780000203C02002070010020F9
:1050C0005C000020580000206400002060000020E8
:1050D0006C00002068000020740000207000002098
:1050E000F4010020FC010020DC010020000200206F
:1050F0000402002038020020480000204C0000205C
:1051000090FBF1F1FD480068FD4A1268801A00EB3F
:1051100040004000642290FBF2F00844C0EB001015
:105120008000F84908600121F648006807F060FA3D
:10513000AAE0F5480068092826D1F4480068032849
:1051400022D1F3480068F3490968401A00EB401087
:1051500000EB4000642190FBF1F1EF480068E84A61
:105160001268801A00EB40004000642290FBF2F0CD
:105170000844C0EB00108000E24908600121E148CA
:10518000006807F035FA7FE0DF480068012826D183
:10519000DE480068032822D1E0480068DD4909683C
:1051A000401A00EB401000EB4000642190FBF1F14D
:1051B000DB480068D24A1268801A00EB40004000C9
:1051C000642290FBF2F00844C0EB00108000CD494F
:1051D00008600121CB48006807F00AFA54E0CA4889
:1051E0000068022826D1C9480068032822D1CD488A
:1051F0000068C8490968401A00EB401000EB400005
:10520000642190FBF1F0BD490968BD4A1268891A12
:1052100001EB41014900642291FBF2F10844C0EB2B
:1052200000108000B74908600121B648006807F007
:10523000DFF929E0B4480068032825D1B3480068A5
:10524000032821D1B8480068B2490968401A00EB28
:10525000401000EB4000642190FBF1F0AE4909687A
:10526000A74A1268891A01EB41014900642291FBA7
:10527000F2F10844C0EB00108000A249086001214F
:10528000A048006807F0B4F9A848006840F6B831B3
:1052900088422ADD9C480068012827D1A44800687C
:1052A000032823D1A348006895490968401A00EBF8
:1052B000401000EB4000642190FBF1F09749096831
:1052C000944A1268891A01EB41014900642291FB5A
:1052D000F2F1401AC0EB001080004042964908608D
:1052E00001219548006807F0F9F990E186480068C7
:1052F000022827D18E480068032823D18F480068F0
:105300007F490968401A00EB401000EB400064211F
:1053100090FBF1F1834800687E4A1268801A00EB26
:1053200040004000642290FBF2F0081AC0EB00102D
:10533000800040428049086001217F48006807F0F2
:10534000CDF964E170480068032827D178480068E7
:10535000032823D17A48006869490968401A00EB9C
:10536000401000EB4000642190FBF1F16E480068B2
:10537000684A1268801A00EB40004000642290FBEB
:10538000F2F0081AC0EB0010800040426A49086041
:1053900001216948006807F0A1F938E15A4800681E
:1053A000042827D162480068032823D16548006893
:1053B00053490968401A00EB401000EB400064219B
:1053C00090FBF1F060490968524A1268891A01EBB2
:1053D00041014900642291FBF2F1401AC0EB001038
:1053E000800040425449086001215348006807F09A
:1053F00075F90CE144480068052827D14C4800683D
:10540000032823D1514800683D490968401A00EB40
:10541000401000EB4000642190FBF1F04C4909681A
:105420003C4A1268891A01EB41014900642291FB50
:10543000F2F1401AC0EB0010800040423E49086083
:1054400001213D48006807F049F9E0E02E48006876
:10545000062827D136480068032823D13D48006834
:1054600027490968401A00EB401000EB4000642116
:1054700090FBF1F038490968264A1268891A01EB55
:1054800041014900642291FBF2F1401AC0EB001087
:10549000800040422849086001212748006807F041
:1054A0001DF9B4E018480068072859D12048006861
:1054B000032855D11A48006811490968401A00EBC1
:1054C000401000EB4000642190FBF1F02349096893
:1054D000104A1268891A01EB41014900642291FBCC
:1054E000F2F1401AC0EB00108000404212490860FF
:1054F00001211148006807F0F1F888E06C000020F5
:105500007C0000203802002094010020F4010020DB
:10551000700000207800002074000020300000207F
:1055200064000020380000204000002070010020AE
:10553000F8010020340000203C0200203C00002044
:10554000440000204C0000204800002054000020AF
:10555000500000205C000020580000206000002067
:1055600047480068082827D146480068032823D107
:105570004548006845490968401A00EB401000EBB7
:105580004000642190FBF1F041490968414A1268EA
:10559000891A01EB41014900642291FBF2F1401AA2
:1055A000C0EB0010800040423B49086001213A48AE
:1055B000006807F093F82AE031480068092826D1EE
:1055C00030480068032822D1344800682F49096810
:1055D000401A00EB401000EB4000642190FBF1F01A
:1055E0002F4909682B4A1268891A01EB41014900C9
:1055F000642291FBF2F1401AC0EB0010800040429F
:105600002549086001212448006807F067F825480B
:105610000068042832D11B48006804282ED10020DD
:1056200021490860214908609FED210A214880ED49
:10563000000A05F093FD00201F49086000220221A6
:105640001E48FBF735FB002204211C48FBF730FB0A
:10565000002201211948FBF72BFB002018490860A4
:1056600005F02CFC17480068401C164908600846E5
:105670000068042802D158201349086010BD0000BA
:1056800094010020F80100206C0000207C00002024
:1056900068000020780000203C02002074000020F8
:1056A00070000020F40100205C010020E0010020D7
:1056B00000000000E401002070010020000C024006
:1056C000DC010020E8010020D801002010B50120F5
:1056D000FE4908600020FE490860FE480068002876
:1056E0004CD1FD480068092802DD0120FA49086014
:1056F000FA48807A01280BD14103F948FBF7CEFA2A
:10570000F5480068401CF44908600021F3488172A4
:10571000F248807801280CD1F248006830B9EE4890
:105720000068F04908600120EB4908600020EB495F
:105730008870ED48006808BB0520EC490860E9481E
:105740000068EB4908600120E04908600020E0495A
:105750000860E748006888B1E248006870B100203E
:10576000E44908609FEDE40AE44880ED000A05F092
:10577000F5FC0120E2490860D6490860D548006878
:1057800001287DD1D548807C01280ED1DD490860F3
:105790000020D84908609FEDD80AD84880ED000A5B
:1057A00005F0DCFC0021CD488174D6480068012852
:1057B0005DD1D5480068401CD349086008460068A0
:1057C00041F28831884207DA06F036FB4FF4005187
:1057D000C348FBF763FA4AE00020CB490860C94997
:1057E0000860BA480068F8B9B948006801281BD1B8
:1057F000C6480068C6490968884209DAC548006891
:10580000022805DB0120C4490860C44908600BE098
:10581000C34805F08DFB401CB54908600020BE4917
:1058200008600120B6490860A848006801281ED118
:10583000A7480068D8B9B5480068B54909688842E2
:1058400009DDB4480068022805DB0120B249086080
:10585000B24908600BE0B24805F06AFB401CA4495D
:1058600008600020AC4908600120A5490860AB48E9
:105870000068012829D1AB480068401CA94900E014
:1058800023E008600846006841F28831884202DA65
:1058900006F0EEFB19E095480068A3490860002077
:1058A000A04908609D4908609B480068012809D10B
:1058B00005F066FB401C8D49086006F089FB401C22
:1058C0008B49086001208E4908608D4800680128D6
:1058D00042F0158395480068A0B986480068401CCE
:1058E0008449086008460068B0F5FA7F0ADD8348FD
:1058F00090ED000ADFED8E0A30EE200A80ED000AFE
:10590000002008608B480068002872D18248006837
:1059100000286FD16D48006801284FD16C4800689D
:1059200000284BD171480068012808D182480068DE
:1059300028B9022142F2107006F05AFE32E06B489C
:105940000068022808D17C48006828B902214FF479
:10595000FA5006F04DFE25E064480068032808D19F
:105960007548006828B9022141F2707006F040FEC7
:1059700018E05E480068042808D16F48006828B91C
:1059800002214FF47A6006F033FE0BE057480068BE
:10599000052807D16848006820B902214FF4FA6051
:1059A00006F026FE51480068012808D163480068C7
:1059B00028B902214FF4615006F090FE34E04B48C4
:1059C0000068022808D15D48006828B902214FF418
:1059D000615006F083FE27E04448006803280AD19E
:1059E0005648006838B902214FF4615006F076FE3F
:1059F0001AE05BE168E03D480068042808D14F48A0
:105A0000006828B902214FF4615006F067FE0BE0F0
:105A100036480068052807D14848006820B90221A7
:105A20004FF4615006F05AFE2848006800284BD118
:105A300027480068012847D12C480068012808D170
:105A40003D48006828B9022142F2107006F0D0FDEE
:105A500032E026480068022808D13748006828B993
:105A600002214FF4FA5006F0C3FD25E01F480068FC
:105A7000032808D13048006828B9022141F270702B
:105A800006F0B6FD18E019480068042808D12A4835
:105A9000006828B902214FF47A6006F0A9FD0BE0F6
:105AA00012480068052807D12348006820B9022160
:105AB0004FF4FA6006F09CFD0C480068012844D1C0
:105AC0001E48006808B93BE06EE03EE08C01002013
:105AD00090010020B4010020AC0100200805002046
